:100000000C947F030C949C030C949C030C949C0311
:100010000C949C030C949C030C949C030C949C03E4
:100020000C949C030C949C030C949C030C949C03D4
:100030000C949C030C949C030C949C030C949C03C4
:100040000C949C030C949C030C949C030C949C03B4
:100050000C949C03536D61727420686F6D6500573A
:10006000656C6C636F6D6520746F20736D61727465
:1000700020686F6D652070616765003C62723E00AC
:100080003C68722077696474683D223130302522E3
:100090002073697A653D2231223E3C62723E003C0B
:1000A000666F726D20616374696F6E3D222E2F3F03
:1000B00022206D6574686F643D22676574223E007E
:1000C0003C696E70757420747970653D2273756239
:1000D0006D6974222076616C75653D225772697472
:1000E00065204C4344223E3C2F666F726D3E003CBF
:1000F000696E707574206E616D653D226C6364324B
:100100002220747970653D227465787422207369A9
:100110007A653D22313622206D61786C656E677498
:10012000683D223136223E003C696E707574206E47
:10013000616D653D226C6364312220747970653D88
:100140002274657874222073697A653D22313622E3
:10015000206D61786C656E6774683D223136223E91
:100160003C62723E00266465673B433C62723E001F
:10017000202054656D7061726174757265203D2038
:100180000041434430203D20003C2F613E205D3C37
:1001900062723E3C62723E0031223E4F4E0030227F
:1001A0003E4F4646003C2F666F6E743E205B203CFF
:1001B0006120687265663D222E2F3F6C363D003C03
:1001C000666F6E7420636F6C6F723D7265643E4F34
:1001D0004646003C666F6E7420636F6C6F723D67BD
:1001E0007265656E3E4F4E003C2F613E205D2C20B7
:1001F0004C4544363A200031223E4F4E0030223EDC
:100200004F4646003C2F666F6E743E205B203C617B
:1002100020687265663D222E2F3F6C353D003C669E
:100220006F6E7420636F6C6F723D7265643E4F46F3
:1002300046003C666F6E7420636F6C6F723D677230
:1002400065656E3E4F4E003C2F613E205D2C204C7C
:100250004544353A200031223E4F4E0030223E4F79
:100260004646003C2F666F6E743E205B203C61204A
:10027000687265663D222E2F3F6C343D003C666FF0
:100280006E7420636F6C6F723D7265643E4F4646BC
:10029000003C666F6E7420636F6C6F723D677265B1
:1002A000656E3E4F4E003C2F613E205D2C204C453C
:1002B00044343A200031223E4F4E0030223E4F4619
:1002C00046003C2F666F6E743E205B203C612068C8
:1002D0007265663D222E2F3F6C333D003C666F6E8B
:1002E0007420636F6C6F723D7265643E4F464600CA
:1002F0003C666F6E7420636F6C6F723D67726565EC
:100300006E3E4F4E003C2F613E205D2C204C4544FC
:10031000333A200031223E4F4E0030223E4F4646B7
:10032000003C2F666F6E743E205B203C612068723B
:1003300065663D222E2F3F6C323D003C666F6E7429
:1003400020636F6C6F723D7265643E4F4646003CA1
:10035000666F6E7420636F6C6F723D677265656E59
:100360003E4F4E003C2F613E205D2C204C454432D8
:100370003A200031223E4F4E0030223E4F4646008A
:100380003C2F666F6E743E205B203C612068726576
:10039000663D222E2F3F6C313D003C666F6E74200F
:1003A000636F6C6F723D7265643E4F4646003C66FB
:1003B0006F6E7420636F6C6F723D677265656E3E21
:1003C0004F4E004C4544313A20003C2F7469746C08
:1003D000653E003C7469746C653E00485454502F6F
:1003E000312E3020323030204F4B0D0A436F6E7467
:1003F000656E742D547970653A20746578742F6831
:10040000746D6C0D0A0D0A00227D002C2273697038
:10041000223A220022002C22616970223A22002214
:10042000002C2274656D70223A220022002C224199
:10043000434430223A22003022003122002C226C28
:1004400036223A22003022003122002C226C352242
:100450003A22003022003122002C226C34223A222F
:10046000003022003122002C226C33223A2200314B
:1004700022003022002C226C32223A22003022004C
:100480003122007B226C31223A2200485454502FF2
:10049000312E3020323030204F4B0D0A436F6E74B6
:1004A000656E742D547970653A20746578742F6880
:1004B000746D6C0D0A0D0A007B2273746174757380
:1004C000223A224F4B227D00485454502F312E3077
:1004D00020323030204F4B0D0A436F6E74656E74BE
:1004E0002D547970653A20746578742F68746D6C3A
:1004F0000D0A0D0A00436F6E6E656374696F6E3A84
:10050000206B6565702D616C6976650D0A0D0A00BA
:100510004B6565702D416C6976653A203330300D3E
:100520000A004163636570743A20746578742F68BB
:10053000746D6C0D0A00557365722D4167656E749C
:100540003A20536D61727420686F6D650D0A004822
:100550006F73743A203139322E3136382E312E33C2
:10056000300D0A0020485454502F312E300D0A000F
:10057000474554202F6176726E65742F73617665DE
:100580002E7068703F7077643D7365637265742682
:1005900074656D703D00737461747573006170698A
:1005A000006D006800656E007463006C6364320067
:1005B0006C636431006C36006C35006C34006C3355
:1005C000006C32006C310073697000616970000466
:1005D0000404023C3C18456E61626C65004469731A
:1005E00061626C65004E6F7420666F756E642E00DC
:1005F00050696E67204F4B2E00E500EF00F90003B5
:10060000010E01180123012E01390144014F015B44
:1006100001660172017E018A019501A101AD01B956
:1006200001C501D101DD01E901F40100020C02174D
:100630000223022E02390244024F025A0265026F5F
:1006400002790284028E029702A102AA02B402BDBC
:1006500002C602CE02D702DF02E702EF02F702FE75
:100660000206030D0314031B03210328032E033486
:10067000033A03400345034B03500355035A035FFA
:1006800003630368036C037103750379037D0381BE
:1006900003840388038B038F039203950398039BC2
:1006A000039E03A103A303A603A803AB03AD03B0FA
:1006B00003B203B403B603B803BA03BC03BE03C05A
:1006C000034552524F520D0A005900534C4F4B0DE7
:1006D0000A00574C4F4B0D0A0053494F4B0D0A006F
:1006E00053544F4B0D0A003B0D0A003B00300031C4
:1006F00000300031003000310047414F4B001124E1
:100700001FBECFE5D8E0DEBFCDBF11E0A0E6B0E070
:10071000E0E2F5E302C005900D92AE30B107D9F7E3
:1007200011E0AEE0B1E001C01D92A734B107E1F7DE
:100730000E9450070C948E1A0C940000C498962FB7
:100740009F71982B9FB9779BFECF1FB8779BFECFE9
:1007500067FF03C01FB8779BFECFC49A8FB108957F
:10076000C4986F71682B6FB9779BFECF4FB9779B99
:10077000FECFC49A08951F93CF93DF93182FC82FED
:10078000D0E0C076D07080910E0190E0C817D907F4
:1007900091F080EA6FE143E00E94B00385E0D595D7
:1007A000C7958A95E1F780E86FE14C2F0E94B0036E
:1007B000107610930E01DF91CF911F9108951F9332
:1007C000182F0E94BB0380E0612F0E949E031F919F
:1007D00008950F931F93182F062F0E94BB0380E4E8
:1007E000612F402F0E94B0031F910F9108950F9326
:1007F0001F93682F84ED0E94E90382ED61E00E945F
:10080000E9038AEE0E94DF0380FDFBCF82ED61E009
:100810000E94E90388ED0E94DF03082F10E089EDB4
:100820000E94DF03282F30E0202B312BC9011F91BC
:100830000F9108950F931F93982F162F072F84ED74
:10084000692F0E94E90386ED612F0E94E90387ED7D
:10085000602F0E94E90310E503C0812F8A95F1F70C
:100860008AEE0E94DF0380FDF8CF1F910F9108955B
:10087000CF93DF93EC018B9A8A98929A939880E4B5
:100880009CE90197F1F7939A80ED97E020E931E038
:10089000F9013197F1F70197D9F787B3806B87BBDF
:1008A000C49A88B38F7588BB80E58DB9709A8FEF35
:1008B00060E04FEF0E94B00384EF91E020E931E067
:1008C000F9013197F1F70197D9F7109210011092C1
:1008D0000F0188E060E00E94E90389E060E00E9487
:1008E000E9038CE060E00E94E9038DE060E00E9493
:1008F000E9038AE063E20E94E9038BE06AE10E9477
:10090000E90384E064E20E94E90385E06AE10E9471
:10091000E90386E060E00E94E90387E060E20E946C
:10092000E90380EC6DE00E94E90382EC62E30E943F
:10093000E90383EC60E40E94E90389EC6FE30E9421
:10094000E90386EC62E10E94E90387EC6CE00E9417
:10095000E9038AEC6EEE0E94E9038BEC65E00E94ED
:10096000E90384EE68810E94E90385EE69810E94B3
:10097000E90382EE6A810E94E90383EE6B810E94A3
:10098000E90380EE6C810E94E90381EE6D810E9493
:10099000E90380E160E071E00E941A0484E162E70B
:1009A00074E00E941A0488E360EB0E94E90388E285
:1009B0006FE30E94E90389E260E30E94E90380E3B8
:1009C00069EF0E94E90381E367EF0E94E90384EC89
:1009D00062E10E94E9038FE10E94BB0380E86BE1C2
:1009E00040EC0E94B00380E86FE144E00E94B00355
:1009F00088EC90E020E931E0F9013197F1F70197B7
:100A0000D9F7DF91CF91089582E70E94DF0308951F
:100A10000F931F93CF93DF938C01EB0182E064E28D
:100A20000E94E90383E06AE10E94E903CE018C5D44
:100A3000682F86E00E94E9039E012C5D354E87E019
:100A4000632F0E94E9038AE760E040E00E94B00360
:100A5000C4988AE78FB9779BFECF08C0F8018081E0
:100A60008FB9779BFECF21970F5F1F4F2097B1F76C
:100A7000C49A80E86FE148E00E94B0038CE10E94D4
:100A8000DF0381FF05C080EA6FE148E00E94B00308
:100A9000DF91CF911F910F910895CF92DF92EF9246
:100AA000FF920F931F93CF93DF936C017B0189E338
:100AB0000E94DF03882319F420E030E05AC080E070
:100AC00060910F010E94E90381E0609110010E9492
:100AD000E9038AE360E00E949E0380930F018AE3AA
:100AE00060E00E949E03082F809310018AE360E07B
:100AF0000E949E03C82F8AE360E00E949E03D82FC5
:100B000024978AE360E00E949E03182F8AE360E046
:100B10000E949E03B701615070406C177D0708F476
:100B2000EB0117FD03C0C0E0D0E014C09E01C498E3
:100B30008AE38FB9779BFECF09C01FB8779BFECFA2
:100B40008FB1F60181936F0121503040211531059D
:100B5000A1F7C49A8CE060910F010E94E9038DE037
:100B6000602F0E94E90380E86EE140E40E94B00338
:100B70009E01C901DF91CF911F910F91FF90EF90DE
:100B8000DF90CF90089528E088E190E00FB6F894C8
:100B9000A89581BD0FBE21BDFFCF4F925F926F928E
:100BA0007F928F929F92AF92BF92CF92DF92EF92FD
:100BB0000F931F93DF93CF93CDB7DEB7CE5ED540B3
:100BC0000FB6F894DEBF0FBECDBF8091270184FF22
:100BD000D0C086FDCEC085FD31C00EE211E06E01B1
:100BE0000894C11CD11CC60166E371E0A8010E94F3
:100BF0002C0E882321F4809127018F7E2FC000D0F6
:100C0000EDB7FEB712830183C60160E570E040EBEB
:100C100054E022E001E0EE24E394CC24DD24AA2475
:100C2000BB2436E3832E31E0932E0E94AD0E8091DB
:100C300027018062809327010F900F902E01089466
:100C4000411C511CC2016EEE75E00E944D05892BBE
:100C500041F48091270187FF8CC08F748093270116
:100C600088C0C2010E94470F882309F482C088A966
:100C7000823171F500D00EE2602E01E0702EEDB7EA
:100C8000FEB772826182C20160E570E040EB54E021
:100C900020E100E0EE2411E0C12ED12CAA24BB24D7
:100CA000B6E38B2EB1E09B2E0E94AD0E0F900F90FD
:100CB000C2010E9486095C0100D0EDB7FEB77282C6
:100CC0006182C20160E570E040EB54E028E129C098
:100CD000883161F5C2010E94680E6C0100D0AEE25D
:100CE0006A2EA1E07A2EEDB7FEB772826182C20150
:100CF00060E570E040EB54E020E100E0EE24AA243F
:100D0000BB24F6E38F2EF1E09F2E0E94AD0EEDB7CF
:100D1000FEB772826182C20160E570E040EB54E090
:100D200021E1CC24DD240E94AD0E21C0813109F5E2
:100D300000D08EE291E0EDB7FEB792838183C201CD
:100D400060E570E040EB54E020E100E0EE24E1E0FB
:100D5000CE2ED12CAA24BB2436E3832E31E0932E51
:100D60000E94AD0E809127018F7C809327010F9008
:100D70000F90C251DA4F0FB6F894DEBF0FBECDBF51
:100D8000CF91DF911F910F91EF90DF90CF90BF90A7
:100D9000AF909F908F907F906F905F904F9008954D
:100DA000CF92DF92EF92FF920F931F93DF93CF9337
:100DB000CDB7DEB7C85FD5400FB6F894DEBF0FBE23
:100DC000CDBF8091270185FD5BC0CE010B966EEEF5
:100DD00075E00E944D05892B09F452C0DE0115967D
:100DE000FE01719686E001900D928150E1F75BE083
:100DF000C52ED12CCC0EDD1EC60161E070E00E9434
:100E0000AA0D882339F0C601BE016B5F7F4F0E9497
:100E1000C90D36C08DA19EA1AFA1B8A589839A83C3
:100E2000AB83BC83C6010E94470F882349F145E08C
:100E3000E42EF12CEC0EFD1EC601B7018E010F5FF2
:100E40001F4FA8010E9426108823D1F4C601B701C4
:100E5000A8010E940B17882371F08091260181FF61
:100E60000FC028E088E190E00FB6F894A89581BD06
:100E70000FBE21BDFFCFC601B701A8010E943E0BE6
:100E8000C850DA4F0FB6F894DEBF0FBECDBFCF917A
:100E9000DF911F910F91FF90EF90DF90CF90089519
:100EA000CF93DF9381E48093280186E58093290125
:100EB00092E590932A0180E580932B018FE4809343
:100EC0002C0190932D0182E391E060E070E044E01A
:100ED00050E00E945F1A8EE291E064E070E044E02E
:100EE00050E00E945F1A8AB38F708ABB8BB3806F09
:100EF0008BBB80B78B7F80BFBB9AC39A81E08EBDCE
:100F00000E9488160E94F8150E94811284B38C6F8B
:100F100084BB83E085BB88E291E00E94380484E5CD
:100F200090E00E946916C0E0D6E008B602FEFDCF50
:100F300088B7846088BFDDBDCCBD0E94EC140E94E0
:100F40008D160E94D0060E94CD050E94FE130E94BD
:100F50006A15EBCFDC0180E031E020E05AE09D91A2
:100F6000492F40534A3040F4239F202D1124240F51
:100F7000359F302D11240DC09E3221F0992311F0A0
:100F800080E00895FB01E80FF11D20838F5F31E0C1
:100F900020E0843021F70895982F80538A3068F03C
:100FA0008153863010F4865F0895892F81548630EE
:100FB00010F080E00895892F87530895CF92DF9233
:100FC000FF920F931F93CF93DF93EC016C011CC032
:100FD0009B3211F490E214C0953291F48E010F5FB0
:100FE0001F4FE8012196F80180810E94CC07F82E5E
:100FF000F80181810E94CC079F2D9295907F982BBC
:10100000F60191936F0121969881992309F7F601D2
:101010001082DF91CF911F910F91FF90DF90CF90C1
:1010200008950F931F938C0168EC74E040E050E04A
:101030000E94880EAC01C80168EB74E00E94880E23
:101040001F910F910895CF92DF92EF92FF920F932D
:101050001F93DF93CF93CDB7DEB7C054D0400FB608
:10106000F894DEBF0FBECDBF6C016BED73E040E0C6
:1010700050E00E94880EAC01C60163ED73E00E944F
:10108000880EAC01C6016FE570E00E94880EAC01CD
:10109000C6016AEC73E00E94880EAC01C60163ECE5
:1010A00073E00E94880EAC01AF9B04C0C6016EEADB
:1010B00073E003C0C6016AE973E00E94880EAC01C8
:1010C000C60160E873E00E94880EAC01AF9B04C0CB
:1010D000C60169E773E003C0C60163E773E00E94DD
:1010E000880EAC01C60164E673E00E94880EAC0174
:1010F000AE9B04C0C6016FE473E003C0C6016BE39E
:1011000073E00E94880EAC01C60161E273E00E94A8
:10111000880EAC01AE9B04C0C6016AE173E003C057
:10112000C60164E173E00E94880EAC01C60165E06F
:1011300073E00E94880EAC01AD9B04C0C60160EF55
:1011400072E003C0C6016CED72E00E94880EAC0133
:10115000C60162EC72E00E94880EAC01AD9B04C037
:10116000C6016BEB72E003C0C60165EB72E00E9442
:10117000880EAC01C60166EA72E00E94880EAC01DE
:10118000AC9B04C0C60161E972E003C0C6016DE713
:1011900072E00E94880EAC01C60163E672E00E9414
:1011A000880EAC01AC9B04C0C6016CE572E003C0C4
:1011B000C60166E572E00E94880EAC01C60167E4D4
:1011C00072E00E94880EAC01AB9B04C0C60162E3D2
:1011D00072E003C0C6016EE172E00E94880EAC01AD
:1011E000C60164E072E00E94880EAC01AB9B04C0B3
:1011F000C6016DEF71E003C0C60167EF71E00E94A8
:10120000880EAC01C60168EE71E00E94880EAC0148
:10121000AA9B04C0C60163ED71E003C0C6016FEB79
:1012200071E00E94880EAC01C60165EA71E00E947F
:10123000880EAC01AA9B04C0C6016EE971E003C030
:10124000C60168E971E00E94880EAC01C60169E838
:1012500071E00E94880EAC01C60161E871E00E9455
:10126000880E7C0180E00E947716AC018E010F5F32
:101270001F4FC80164E00E94CA101D82C601B80158
:10128000A7010E949B0EAC01C60160E771E00E94BD
:10129000880E7C010E948D16482FC80162E050E044
:1012A0000E94CA101B82C601B801A7010E949B0EB2
:1012B000AC01C60165E671E00E94880EAC01C60172
:1012C0006FE970E00E94880EAC01C60168E271E02F
:1012D0000E94880EAC01C6016FEE70E00E94880E7D
:1012E000AC01C60160EC70E00E94880EC05CDF4F6C
:1012F0000FB6F894DEBF0FBECDBFCF91DF911F9127
:101300000F91FF90EF90DF90CF900895EF92FF92B2
:101310000F931F93DF93CF93CDB7DEB7C054D04068
:101320000FB6F894DEBF0FBECDBF8C010E948D16A4
:10133000482F7E010894E11CF11CC70162E050E0D7
:101340000E94CA101B82C80160E775E040E050E0CF
:101350000E94880EAC01C801B7010E949B0EAC012F
:10136000C80164E675E00E94880EAC01C8016FE414
:1013700075E00E94880EAC01C80166E375E00E942A
:10138000880EAC01C80162E275E00E94880EAC01D3
:10139000C80160E175E00E94880EAC01C80165EFEC
:1013A00074E00E94880EC05CDF4F0FB6F894DEBF79
:1013B0000FBECDBFCF91DF911F910F91FF90EF90A6
:1013C0000895CF92DF92EF92FF920F931F93DF93D6
:1013D000CF93CDB7DEB7C054D0400FB6F894DEBF80
:1013E0000FBECDBF6C016BE874E040E050E00E949E
:1013F000880EAC01C60163E874E00E94880EAC015F
:10140000AF9B04C0C60160E874E003C0C6016DE78D
:1014100074E00E94880EAC01C60165E774E00E948A
:10142000880EAC01AE9B04C0C60162E774E003C045
:10143000C6016FE674E00E94880EAC01C60167E643
:1014400074E00E94880EAC01AD9B04C0C60164E646
:1014500074E003C0C60161E674E00E94880EAC012E
:10146000C60169E574E00E94880EAC01AC9B04C023
:10147000C60166E574E003C0C60163E574E00E943E
:10148000880EAC01C6016BE474E00E94880EAC01CA
:10149000AB9B04C0C60168E474E003C0C60165E408
:1014A00074E00E94880EAC01C6016DE374E00E94F6
:1014B000880EAC01AA9B04C0C6016AE374E003C0B5
:1014C000C60167E374E00E94880EAC01C6016DE2BC
:1014D00074E00E94880E7C0180E00E947716AC01C7
:1014E0008E010F5F1F4FC80164E00E94CA101D8269
:1014F000C601B801A7010E949B0EAC01C6016BE2B8
:1015000074E00E94880EAC01C60161E274E00E94A2
:10151000880E7C010E948D16482FC80162E050E0C1
:101520000E94CA101B82C601B801A7010E949B0E2F
:10153000AC01C6016FE174E00E94880EAC01C601E7
:1015400066E174E00E94880E7C01C80162E371E0EC
:1015500040E00E940811C601B801A7010E949B0E3D
:10156000AC01C60164E174E00E94880EAC01C601C2
:101570006BE074E00E94880E7C01C8016EE271E0AD
:1015800040E00E940811C601B801A7010E949B0E0D
:10159000AC01C60168E074E00E94880EC05CDF4FB9
:1015A0000FB6F894DEBF0FBECDBFCF91DF911F9174
:1015B0000F91FF90EF90DF90CF900895CF92DF9240
:1015C000EF92FF920F931F93CF93DF93EC018B0168
:1015D0006A0179010E94810E282F30E02E5D3F4F75
:1015E000FE01E20FF31F05C081918F3329F02F5FB9
:1015F0003F4F20173107C0F320173107A9F1DE0153
:10160000A20FB31FF60180E015C044919C919D3359
:1016100039F4882329F0442319F42F5F3F4F0FC07A
:10162000941719F0F60180E002C031968F5F2F5FAA
:101630003F4F11962017310740F38823B1F0DE01A8
:10164000A20FB31F80E09C91963219F01196903250
:1016500029F4E80EF11CF701108207C0F701E80F2A
:10166000F11D90838F5FEFCF80E0DF91CF911F91CD
:101670000F91FF90EF90DF90CF9008952F923F92BF
:101680004F925F926F927F928F929F92AF92BF9292
:10169000CF92DF92EF920F931F93DF93CF93CDB74B
:1016A000DEB7C754D0400FB6F894DEBF0FBECDBF33
:1016B0003C0126967FAF6EAF269728965FAF4EAF60
:1016C0002897FC0122A163A18789863009F0E6C131
:1016D00084A1882309F0E2C185A1803509F0DEC12B
:1016E000922F80E0262E3324282A392A87A581FFCD
:1016F0001BC000D0EDB7FEB752834183C301B101D7
:1017000040E550E022E101E0EE24F1E0CF2ED12CC3
:10171000AA24BB2426968EAC9FAC26970E94AD0EC1
:10172000809127018064B6C184FFB8C1C3010E94C3
:10173000680E2C01009701F5F30187A580FFAEC16B
:1017400000D028968EAD9FAD2897EDB7FEB7928357
:101750008183C301B10140E550E020E100E0EE24C7
:10176000E1E0CE2ED12CAA24BB2426968EAC9FACD1
:1017700026970E94AD0E90C18E010C5F1F4FC301D2
:10178000B2014BEC55E098010E94DE0A8823B9F0C3
:10179000C80162E371E00E94AA07843041F482E349
:1017A00091E060E070E044E050E00E94771A82E34C
:1017B00091E060E070E044E050E00E945F1A8E012A
:1017C0000C5F1F4FC301B20147EC55E098010E9426
:1017D000DE0A8823B9F0C8016EE271E00E94AA0710
:1017E000843041F48EE291E064E070E044E050E047
:1017F0000E94771A8EE291E064E070E044E050E0ED
:101800000E945F1AC301B20144EC55E09E012C5FB7
:101810003F4F0E94DE0A882331F08C81803311F41F
:10182000AF9801C0AF9AC301B20141EC55E09E01EF
:101830002C5F3F4F0E94DE0A882331F08C81803379
:1018400011F4AE9801C0AE9AC301B2014EEB55E05F
:101850009E012C5F3F4F0E94DE0A882331F08C816D
:10186000803311F4AD9801C0AD9AC301B2014BEBC6
:1018700055E09E012C5F3F4F0E94DE0A882331F025
:101880008C81803311F4AC9801C0AC9AC301B201D1
:1018900048EB55E09E012C5F3F4F0E94DE0A8823F3
:1018A00031F08C81803311F4AB9801C0AB9AC30145
:1018B000B20145EB55E09E012C5F3F4F0E94DE0ACE
:1018C000882331F08C81803311F4AA9801C0AA9A40
:1018D0008E010C5F1F4FC301B20140EB55E0980130
:1018E0000E94DE0A882379F0C8010E94DE078CE09E
:1018F0000E944016C8010E945C16809127018460F6
:1019000080932701C39A8E010C5F1F4FC301B20160
:101910004BEA55E098010E94DE0A882379F0C8015D
:101920000E94DE078AE00E944016C8010E945C16F1
:1019300080912701846080932701C39A8E010C5FF8
:101940001F4FC301B20148EA55E098010E94DE0A28
:10195000882309F447C0C301B20145EA55E0980164
:101960000E94DE0A882319F081E0898301C0198270
:10197000C301B20143EA55E09E012C5F3F4F0E9434
:10198000DE0A882349F08C812AE0829FC00111245D
:101990002D81280F20512A83C301B20141EA55E06D
:1019A0009E012C5F3F4F0E94DE0A882349F08C8104
:1019B0002AE0829FC00111242D81280F20512B8302
:1019C000CE01019668E070E043E050E00E94771A93
:1019D0008CE391E068E070E043E050E00E945F1A21
:1019E00010923F018E010C5F1F4FC301B2014DE900
:1019F00055E098010E94DE0A882339F08C818F36E9
:101A0000A9F4C3010E94E10910C0C301B20146E973
:101A100055E098010E94DE0A882321F0C3010E944C
:101A2000110803C0C3010E9423082C0100D028968E
:101A30008EAD9FAD2897EDB7FEB792838183C3012A
:101A4000B10140E550E020E100E0EE2431E0C32E9A
:101A5000D12CAA24BB2426968EAC9FAC26970E943C
:101A6000AD0E28968EAD9FAD2897EDB7FEB7928349
:101A70008183C301B10140E550E029E1CC24DD249C
:101A8000520126968EAC9FAC26970E94AD0E809197
:101A900027018F7B809327010F900F90C95BDF4F49
:101AA0000FB6F894DEBF0FBECDBFCF91DF911F916F
:101AB0000F91EF90DF90CF90BF90AF909F908F905D
:101AC0007F906F905F904F903F902F900895CF93AD
:101AD000DF93DC011E961C921E9781E01F968C936B
:101AE0001F9788E050968C93509751961C9251976F
:101AF00086E052968C93529784E053968C9353973A
:101B0000ED0120E030E0FB01E20FF31F808188A3AC
:101B1000F901E85DFE4F80818E8B2F5F3F4F21964C
:101B20002630310581F75C9620E030E0FA01E20FC3
:101B3000F31F80811A968C931A97F901EE5CFE4F81
:101B400080818D932F5F3F4F2430310579F7DF91EE
:101B5000CF910895FC0184858830C9F4858586304D
:101B6000B1F48489871799F48589861781F4DF0198
:101B70009696E2E3F1E09C918081981741F41196EA
:101B8000319681E0E633F807B1F781E0089580E00F
:101B90000895EF92FF920F931F938C017B0166E0F3
:101BA00078E0A7010E94AB0FF801148A82E0858BD0
:101BB000A801445E5F4FC801B7010E94670DC801CC
:101BC0006AE270E00E9408051F910F91FF90EF906C
:101BD0000895CF92DF92EF92FF920F931F93DF93BE
:101BE000CF9300D000D000D0CDB7DEB78C016B0111
:101BF0008FEF89838A838B838C838D838E83C80147
:101C000066E078E07E010894E11CF11CA7010E94C7
:101C1000AB0F19821A821B821C821D821E82F80160
:101C2000148A81E0858BC801B701A6010E94670D67
:101C3000C8016AE270E00E94080526960FB6F89483
:101C4000DEBF0FBECDBFCF91DF911F910F91FF90EF
:101C5000EF90DF90CF900895DF92EF92FF920F9375
:101C60001F93CF93DF93EC01062FD72EBA010E946A
:101C7000E90D10E080E4E82E8CE9F82EC701019709
:101C8000F1F7CE016EEE75E00E944D05892BA1F0B3
:101C9000CE0162E070E00E94AA0D882369F0802FD7
:101CA0009D2D9C01D901FE01369686E001900D9292
:101CB0008150E1F781E004C01F5F1A30F9F680E03F
:101CC000DF91CF911F910F91FF90EF90DF900895DA
:101CD000FC01908980E0218930E0282B392B2451A8
:101CE000304086A582958F7090E0880F991F880FED
:101CF000991F281B390B37FF02C020E030E0C901D3
:101D00000895FC0186A582958F70880F880F08952D
:101D10004A5C5F4FDC01A40FB51F4653504003C01F
:101D20008D934F5F5F4FFB016F5F7F4F84918823DF
:101D3000B9F7CA010895FB014A5C5F4FDC01A40FAB
:101D4000B51F4653504004C08D9331964F5F5F4F8F
:101D500080818823C9F7CA0108952F923F924F923C
:101D60005F926F927F928F929F92AF92BF92CF922B
:101D7000DF92EF92FF920F931F93DF93CF930F9217
:101D8000CDB7DEB73C01262E472E4983352E522E85
:101D9000F02E8501A40160E078E00E94AB0FC11431
:101DA000D10489F0F301B99634E08081A601480F8F
:101DB000511DCA01248144832083C92EDD24315062
:101DC0003197332391F7FF20B9F0F30116A217A240
:101DD0008091600080A711A68E5F8093600082E0F2
:101DE00086AB84E087AB85E080AF80E881AF80E69A
:101DF00086A70C5F1F4F03C080E5F30186A7B801DB
:101E0000685D7F4FC30146E02E893F890E94610FC4
:101E1000EE2029F0F30112A613A614A615A6F301CD
:101E200057A644A225A232A2498143A385E080ABF4
:101E30008AEB81AB14AA15AA12AA13AA065E1F4F39
:101E4000980140E050E0C3014A960E5F1F4FB80171
:101E50000E94C80FF30192AB83AB065E1F4FC30114
:101E6000B8010E9408050F90CF91DF911F910F914B
:101E7000FF90EF90DF90CF90BF90AF909F908F90AA
:101E80007F906F905F904F903F902F900895FC014E
:101E900084858830A1F48585882389F4DF01E2E315
:101EA000F1E05E969C915E978081981741F41196BF
:101EB000319681E0E633F807A1F781E0089580E0EC
:101EC00008950F931F93CF93DF93EC018C01025F72
:101ED0001F4F85E48E871F86788B698B8091620007
:101EE0008A8B809161008B8B809161009091620060
:101EF000019690936200809361001C8A1D8A80E89D
:101F00008E8B4F8BDE0140E050E0F901E40FF51FAE
:101F100080815E968C935E97FA01EE5CFE4F808125
:101F20005A968C935A974F5F5F4F119644305105E4
:101F300061F7188E198EC80164E170E020E030E08E
:101F400040E050E00E94C80F988F898FDF91CF91B9
:101F50001F910F910895CF93DF93EC01DC0120E0F6
:101F600030E0FA01E20FF31F80818C93F901E85D04
:101F7000FE4F808116968C9316972F5F3F4F1196D8
:101F80002630310571F77C876D87DF91CF910895F9
:101F9000EF92FF920F931F93CF93DF937C018B01FE
:101FA000EC010FC0F881E0E0898190E08E2B9F2B3F
:101FB000A0E0B0E0280F391F4A1F5B1F2296625035
:101FC00070406230710570F7F801EE7FEE0DFF1D75
:101FD00000FF0BC0908180E0A0E0B0E002C0407044
:101FE0005070280F391F4A1F5B1FCA01AA27BB2741
:101FF0000097A105B10599F720953095C901DF91AA
:10200000CF911F910F91FF90EF900895CF93DF93A1
:10201000EC019C012E5D3F4F8AA1883039F4FE010E
:10202000BA9681E481938F5F8136E1F71CA21DA2ED
:10203000C90168E270E020E030E040E050E00E943A
:10204000C80F9CA38DA3DF91CF9108950F931F9389
:10205000CF93DF93EC019B018A018F898130F9F4E2
:102060008AA18830E1F4CE0160E078E0A9010E9405
:10207000AB0F788960E0898990E0682B792BCE01DD
:1020800041E098010E94610F1AA2CE010E94061041
:10209000CE016AE470E00E94080581E001C080E0A2
:1020A000DF91CF911F910F910895EF92FF920F93BF
:1020B0001F938C019B017A0160E078E0A9010E94E6
:1020C000AB0FC8016CE370E041E097010E94610F23
:1020D00088E0F80182A313A28091630086A317A26F
:1020E0008091640080A711A6809163008F5F809328
:1020F0006300809164008F5F80936400C8010E9438
:102100000610C8016AE470E00E9408051F910F9153
:10211000FF90EF900895EF92FF920F931F93CF934C
:10212000DF93EC018A010E942C0E882301F1CE017D
:1021300066E371E0A8010E94551010E080E4E82EEB
:102140008CE9F82EC7010197F1F7CE016EEE75E02C
:102150000E944D05892B41F08F89813029F48AA195
:10216000882311F481E004C01F5F1A3059F780E022
:10217000DF91CF911F910F91FF90EF900895DC01B7
:1021800001C08D93FB016F5F7F4F84918823C9F756
:10219000CD0108951F93FC01162F9A01653038F088
:1021A000CA0160E177E20E944B1A605D61931430CE
:1021B00058F0C90160E177E20E944B1A68EE73E0C3
:1021C0000E944B1A605D6193133058F0C90168EEAC
:1021D00073E00E944B1A64E670E00E944B1A605D47
:1021E0006193123058F0C90164E670E00E944B1A06
:1021F0006AE070E00E944B1A605D6193C9016AE079
:1022000070E00E944B1A805D8193CF011F91089569
:10221000CF92DF92EF92FF920F931F93CF93DF93B2
:10222000DC017B0180E090E0042F10E03EE2C32E51
:102230002EE7D22EF701E80FF91F4081443610F047
:1022400063E005C04A3010F461E001C062E0EC01D7
:102250002196C017D10711F4DD9202C08111CD92F1
:10226000CD0150E00E94CA10DC01C430D10511F04C
:10227000CE01E0CF1C92DF91CF911F910F91FF9083
:10228000EF90DF90CF900895882331F4AF9B02C088
:10229000AF980895AF9A0895813031F4AE9B02C093
:1022A000AE980895AE9A0895823031F4AD9B02C085
:1022B000AD980895AD9A0895833031F4AC9B02C077
:1022C000AC980895AC9A0895843031F4AB9B02C069
:1022D000AB980895AB9A0895853029F4AA9B02C063
:1022E000AA980895AA9A0895DC0120E046E430E314
:1022F00050E27EE7261739F4CD010196222351F4EE
:102300007C93DC0116C0662351F4213041F4FD01B9
:10231000519317C05C9311967C93FC0106C0222355
:1023200041F0FD01519311965C933196213071F487
:1023300008C0CD010196AF9B02C03C9323C04C93D3
:1023400021C0CF010196AE9B1CC019C0223029F4D8
:10235000CF010196AD9B15C012C0233029F4CF01E7
:102360000196AC9B0EC00BC0243029F4CF0101961E
:10237000AB9B07C004C0CF010196AA9B02C030836B
:1023800001C04083DC012F5F263009F0B3CF1C92DF
:102390000895DC0180916500843610F063E005C08B
:1023A0008A3010F461E001C062E0FD018EE78193A4
:1023B000409165004423A9F48EE411968C93DF01CB
:1023C000119695E69183FD01319686E711968C93DF
:1023D000DF011196918382E711968C931197FD018D
:1023E0001FC0CF0150E00E94CA10DC01FC0180E256
:1023F000819383E711968C93DF01119685E68183A3
:10240000FD01319683E611968C93DF0111968FE6DC
:102410008183FD0131968EE611968C9384E681834B
:10242000329610820895CF92DF92EF92FF920F932F
:102430001F93CF93DF93DC01FB014423F1F48081F0
:10244000882389F0EB01219610E00AE301C00D9387
:102450004991CD0162E050E00E94CA10DC011F5F8B
:102460001330A9F744C08DED95E001C02D93FC0118
:10247000019624912223D1F73AC04130C9F48EE766
:102480008D938081882351F086ED95E001C02D93D6
:10249000FC01019624912223D1F729C08DED95E00E
:1024A00001C02D93FC01019624912223D1F71FC076
:1024B0008B01C2E0D0E0E42EFF245AE3C52E4EE7A4
:1024C000D42ECE15DF0511F4DD9203C0C23009F021
:1024D000CD92F8014181CD0162E050E00E94CA1026
:1024E000DC0121960F5F1F4FC530D10551F71C92BB
:1024F000DF91CF911F910F91FF90EF90DF90CF90E0
:102500000895109243018CE391E068E070E043E0AD
:1025100050E00E945F1A10923F0110922701109222
:102520002601109241011092420110924601109230
:1025300044011092450181E08093400108950F937A
:102540001F93DF93CF93CDB7DEB7C054D0400FB603
:10255000F894DEBF0FBECDBF80914101882309F4FE
:102560005DC08CE00E944016E0914101F0E0EE0F6A
:10257000FF1FE654FF4F808191810E945C168AE024
:102580000E94401680914101813051F4E091420156
:10259000F0E0EE0FFF1FE454FF4F808191813CC0BB
:1025A000823051F4409145014F5F8E010F5F1F4F04
:1025B000C80162E371E023C0833051F440914501CA
:1025C0004F5F8E010F5F1F4FC8016EE271E017C0B1
:1025D000843061F4409145014F5F8E010F5F1F4FC2
:1025E000C8016CE371E00E94131215C0853051F4EC
:1025F0008E010F5F1F4FC8016EE271E041E00E9443
:10260000081109C0863051F48E010F5F1F4FC801B9
:1026100061E00E94C911C8010E945C16C05CDF4FD6
:102620000FB6F894DEBF0FBECDBFCF91DF911F91E3
:102630000F91089580914101882391F48091400188
:10264000813029F4809111010E9444110895815034
:102650008093400180912701826080932701089533
:10266000813061F48091420181508093420188233E
:1026700009F04CC085E0809342010895823069F4EE
:10268000E0914501F0E0EE5CFE4F80818150808357
:1026900082E391E060E070E025C0833069F4E0916E
:1026A0004501F0E0E25DFE4F8081815080838EE243
:1026B00091E064E070E016C08430C9F48091450177
:1026C00090E0FC01EE52FA4F2491FC01E45CFE4FD5
:1026D0008081815080838F3F09F420838CE391E0D7
:1026E00068E070E044E050E00E94771A0895863078
:1026F00069F480916500882311F480EF01C0815056
:1027000080936500809165008093660008959091A4
:1027100041019923E9F490914001913051F4809165
:1027200011018F5F80931101863009F066C010920D
:102730001101892F8F5F80934001863019F481E069
:102740008093400180912701826080932701089542
:10275000913059F4809142018F5F8093420186301D
:1027600009F04BC0909342010895923069F4E091D2
:102770004501F0E0EE5CFE4F80818F5F808382E355
:1027800091E060E070E025C0933069F4E09145018C
:10279000F0E0E25DFE4F80818F5F80838EE291E00A
:1027A00064E070E016C09430C9F48091450190E077
:1027B000FC01EE52FA4FE491DC01A45CBE4F8C9117
:1027C0008F5F8C938E1709F41C928CE391E068E084
:1027D00070E044E050E00E94771A0895963069F462
:1027E000809165008F5F80936500813F10F01092AB
:1027F0006500809165008093660008951F93DF93C4
:10280000CF93CDB7DEB7CE5ED5400FB6F894DEBF1E
:102810000FBECDBF19B3107F90916500103F69F5D1
:10282000809127018E7F80932701809126018E7FE2
:10283000809326011092130110921201992311F432
:10284000C39ABFC090916600992309F4BAC08091E1
:102850000D01815080930D018B3F08F4B2C08AEFC7
:1028600080930D01892F815080936600882309F0A1
:10287000A8C010926600C398A4C090936600C39A43
:10288000809113018F5F80931301883C39F410927B
:102890001301809126018160809326018091260199
:1028A00080FF14C0809112018F5F809312018E31DE
:1028B00069F410921201103B19F40E94871304C0AE
:1028C000103711F40E941A130E949F128091270161
:1028D00080FD77C0103E09F04DC0E0914101EE232C
:1028E00031F41092450181E08093410151C0E13003
:1028F00061F4E093460180914201809344018F5F2F
:1029000080934101E093420154C0E53029F58CE009
:102910000E9440168091C4009091C5000E945C16F0
:102920008AE00E944016CE01019666E371E04EE215
:1029300051E00E948B10882319F080EF95E002C0CF
:1029400085EE95E00E946916809127011092410161
:1029500010924201856033C0F0E0E353FA4FE491F6
:10296000809145018F5F809345018E1711F510927C
:1029700045011FC0103DA1F4109245018091410115
:10298000823048F08091460180934101809144015A
:10299000809342010EC0109241011092420109C081
:1029A000103B19F40E94871304C0103711F40E94E1
:1029B0001A130E949F128091270181608B7F809360
:1029C0002701C251DA4F0FB6F894DEBF0FBECDBF5C
:1029D000CF91DF911F910895809143018F5F809384
:1029E00043018A3F09F04CC01092430190912701A6
:1029F000892F82608093270185FF0CC0809114018C
:102A00008F5F80931401853029F41092140192682D
:102A10009093270180913C01882391F1809141019D
:102A2000843071F180913F01815080933F018C335C
:102A300038F184E180933F0180913E018150809381
:102A40003E018C33E8F08BE380933E0180913D01A1
:102A5000815080933D01883198F089E090E00E9498
:102A60006F1A80933D018AE090E00E946F1A809374
:102A70003E0110923F0180912701806180932701E0
:102A80000895DF92EF92FF920F931F937C0180E0F5
:102A90000E9477168C010E948D16D82EC70164E023
:102AA000A8010E94CA10FC018CE28193CF0162E070
:102AB0004D2D50E00E94CA10DC01FC018FED819386
:102AC00083E411968C9311821F910F91FF90EF90E8
:102AD000DF900895DF93CF93CDB7DEB7C054D040D9
:102AE0000FB6F894DEBF0FBECDBF9091270191FFC6
:102AF0004DC0892F8D7F8093270192FD47C0809123
:102B00004101882309F042C08CE00E944016E09108
:102B10004001F0E0EE0FFF1FEF5FFE4F80819181DB
:102B20000E945C168AE00E9440168091400181302C
:102B300031F4CE010196609111010E9474118091CF
:102B40004001823029F4CE01019662E371E006C0B3
:102B5000833041F4CE0101966EE271E040E00E94C4
:102B6000081110C0843041F4CE0101966CE371E08D
:102B700040E00E94131206C0853021F4CE01019678
:102B80000E944115CE0101960E945C16C05CDF4F89
:102B90000FB6F894DEBF0FBECDBFCF91DF91089581
:102BA00092B39F7092BB92B3807F892B82BB85E0EA
:102BB0008A95F1F7C29A8AE08A95F1F7C29808954A
:102BC0001F93162FC098882311F0C09A01C0C09897
:102BD00088EC90E00197F1F7C298812F807F0E94E6
:102BE000D015812F8295807F0E94D0151F91089566
:102BF0000F931F9381B3806F81BB87B3876087BBBF
:102C000082B38F7082BBC09880E69AEE0197F1F78D
:102C100080E30E94D01500E21EE4C8010197F1F79D
:102C200080E30E94D015C8010197F1F780E30E946C
:102C3000D015C8010197F1F780E20E94D01580E01D
:102C400068E20E94E01580E06CE00E94E01580E000
:102C500061E00E94E01580E066E00E94E0151F91AF
:102C60000F910895982F613011F080E401C080E049
:102C70009150980F906880E0692F0E94E0150895A8
:102C8000682F8C3049F480E061E00E94E01580E418
:102C90009FE10197F1F708958A3029F481E062E01D
:102CA0000E9432160895883019F480E060E101C076
:102CB00081E00E94E0150895CF93DF93EC0103C0FB
:102CC00021960E94401688818823D1F7DF91CF9109
:102CD0000895CF93DF93EC0102C00E944016FE01DD
:102CE000219684918823C9F7DF91CF91089597B1F8
:102CF0008F71907E892B87B9369A3699FECF24B191
:102D000045B1942F80E030E0282B392BC90108957C
:102D100087E886B980EC87B908951F931091150153
:102D200081E00E947716E12FF0E0EE0FFF1FEA5ED0
:102D3000FE4F91838083E6E1F1E020E030E0819175
:102D40009191280F391F81E0E632F807C1F7812FF2
:102D50008F5F80931501883011F410921501B9012D
:102D600083E0769567958A95E1F729EF35E040E0B5
:102D7000F901859194918617970728F44F5F2E5F8C
:102D80003F4F4436A9F7842F1F910895FB01465DFC
:102D90005F4FDC01A40FB51F4A52504004C08D9311
:102DA00031964F5F5F4F80818823C9F7CA0108952C
:102DB000465D5F4FDC01A40FB51F4A52504003C06F
:102DC0008D934F5F5F4FFB016F5F7F4F849188232F
:102DD000B9F7CA0108950F931F938C018BE0F80196
:102DE00082A388EB83A374A365A356A347A310A66D
:102DF00011A6BA016F5E7F4F9B0140E050E0C80111
:102E00004A96695070400E94C80FF80190A781A7A8
:102E10001F910F9108956F927F928F929F92AF9220
:102E2000BF92CF92DF92EF92FF920F931F93DF93A7
:102E3000CF93CDB7DEB7C354D0400FB6F894DEBF02
:102E40000FBECDBF5C014B013A01FC018789813186
:102E500009F00AC384A18B3009F006C385A1883B21
:102E600009F002C38AE2C82ED12CCA0CDB1C82A551
:102E7000873409F086C183A5813409F0A5C284A5F1
:102E80008D3009F0A1C285A58A3009F09DC2D60116
:102E900080E090E002C02D930196FC01E750F94FCD
:102EA00024912223C1F79C01265D3F4FAF9B06C0B2
:102EB000D501A20FB31F25EF36E011C0D501A20F37
:102EC000B31F27EF36E002C04D930196F9012F5F43
:102ED0003F4F44914423C1F708C04D930196F90137
:102EE0002F5F3F4F44914423C1F7AE9914C09C011A
:102EF000265D3F4FD501A20FB31F2A52304083EF0A
:102F000096E003C04D932F5F3F4FFC010196449123
:102F10004423C1F713C09C01265D3F4FD501A20F8A
:102F2000B31F2A52304081EF96E003C04D932F5FCC
:102F30003F4FFC01019644914423C1F7D22EF32E5A
:102F400080E00E947716AC018E010C5F1F4FC80114
:102F500064E00E94CA1018862D2D3F2DC9017C0106
:102F60008AE290E0E80EF91ED501AE0DBF1DE6ED38
:102F7000FFEFEE0EFF1EF80105C08D933196089409
:102F8000E11CF11C80818823C1F70E948D16482F17
:102F90008E010C5F1F4FC80162E050E00E94CA1012
:102FA0001E828AE290E0E80EF91ED501AE0DBF1D2B
:102FB000E6EDFFEFEE0EFF1EF80105C08D93319692
:102FC0000894E11CF11C80818823C1F7CE01019691
:102FD00068E070E043E050E00E945F1A8981970149
:102FE000265D3F4F882331F4D501A20FB31F8DEE2C
:102FF00096E014C0D501A20FB31F8FEE96E004C077
:103000002D930894E11CF11CFC01019624912223CC
:10301000B9F709C02D930894E11CF11CFC0101963D
:1030200024912223B9F78E010C5F1F4F4A81C801FA
:1030300062E050E00E94CA101E822E2D3F2DC90171
:103040007C018AE290E0E80EF91ED501AE0DBF1DAD
:10305000E6EDFFEFEE0EFF1EF80105C08D933196F1
:103060000894E11CF11C80818823C1F78E010C5F5C
:103070001F4F4B81C80162E050E00E94CA101E82BF
:103080008AE290E0E80EF91ED501AE0DBF1DE6ED17
:10309000FFEFEE0EFF1EF80105C08D9331960894E8
:1030A000E11CF11C80818823C1F78E010C5F1F4F4A
:1030B000C80162E371E040E00E9408118AE290E0FA
:1030C000E80EF91ED501AE0DBF1DE6EDFFEFEE0EC9
:1030D000FF1EF80105C08D9331960894E11CF11C88
:1030E00080818823C1F78AE290E0E80EF91ED501BD
:1030F000AE0DBF1DE6EDFFEFEE0EFF1E8BEE96E070
:1031000004C02D930894E11CF11CFC01019624914C
:103110002223B9F78E010C5F1F4FC8016EE271E0E8
:1031200040E00E9408118AE290E0E80EF91ED50105
:10313000AE0DBF1DE6EDFFEFEE0EFF1EF80105C060
:103140008D9331960894E11CF11C80818823C1F78E
:103150008AE290E0E80EF91ED501AE0DBF1DE6ED46
:10316000FFEFEE0EFF1E87EE96E004C02D9308944D
:10317000E11CF11CFC01019624912223B9F7DE2CFD
:103180004EC1833509F0ABC0F50183A58435D9F56F
:1031900081A98D3009F0EDC032A93A3009F0E9C0BB
:1031A00084A58053898385A5839FC001112426A50A
:1031B000280F20512A8387A5839FC001112420A9AD
:1031C000280F20512B83CE01019668E070E043E088
:1031D00050E00E94771A8CE391E068E070E043E0F1
:1031E00050E00E945F1A10923F01D60120E030E0CB
:1031F00003C08D932F5F3F4FF901E052F94F849147
:103200008823B9F70AC1893409F0B3C0F501EC5A33
:10321000FF4F9AE280818D3019F481818A3039F034
:103220009F5F31969A3AB1F702C00F5F01C000E08C
:10323000E02FF0E0BA96EA0DFB1D80818B33A9F7F1
:10324000F02E1082C5018C9662E371E00E94AA07FD
:10325000843041F482E391E060E070E044E050E0CB
:103260000E94771A82E391E060E070E044E050E071
:103270000E945F1A01C00F5FE02FF0E0BA96EA0DDE
:10328000FB1D80818B33B9F71082F3948F2D90E072
:103290008A968A0D9B1D6EE271E00E94AA07843017
:1032A00041F482E391E064E070E044E050E00E9489
:1032B000771A82E391E064E070E044E050E00E941D
:1032C0005F1AD60120E030E003C08D932F5F3F4F9F
:1032D000F901E752F94F84918823B9F79EC08735E9
:1032E00009F045C0F50183A58C3409F06DC0EC5A96
:1032F000FF4F9AE280818D3019F481818A3039F054
:103300009F5F31969A3AB1F702C09F5F01C090E08B
:10331000E92FF0E0BA96EA0DFB1D80818B33A9F707
:103320008AE0808301C09F5FE92FF0E0BA96EA0D42
:10333000FB1D80818B33B9F710828CE00E94401610
:10334000C5018C960E945C16809127018460809351
:103350002701D60120E030E003C08D932F5F3F4F5F
:10336000F901EE52F94F84918823B9F756C083359D
:1033700029F5F50183A58C3439F586A58D3021F525
:1033800087A58A3009F584A5803311F4AF9A01C06E
:10339000AF98F50185A5803329F4AE9AD60120E0D7
:1033A00030E005C0AE98FACF8D932F5F3F4FF90103
:1033B000E553F94F84918823B9F72FC0823521F462
:1033C000F50183A5833521F0D60120E030E01FC050
:1033D000F50184A58D30C1F785A58A30A9F7D601FE
:1033E00020E030E003C08D932F5F3F4FF901E7539A
:1033F000F94F84918823B9F7D22EF32E80912601BC
:103400008260809326010BC08D932F5F3F4FF9019F
:10341000EF53F94F84918823B9F7D22EF32EC501CB
:1034200060E078E0A4010E94AB0F0D2D1F2D045E1B
:103430001F4FC501B80141E193010E94610FF501E1
:1034400072A160E083A190E0682B792B04511040B9
:10345000C501A8010E94EB160E5D1F4FC501B80102
:103460000E94080581E001C080E0CD5BDF4F0FB610
:10347000F894DEBF0FBECDBFCF91DF911F910F91AA
:10348000FF90EF90DF90CF90BF90AF909F908F9084
:103490007F906F900895AA1BBB1B51E107C0AA1F24
:1034A000BB1FA617B70710F0A61BB70B881F991FE5
:1034B0005A95A9F780959095BC01CD010895DC013E
:1034C000CB01FC01E199FECF06C0FFBBEEBBE09A49
:1034D00031960DB20D9241505040B8F70895E199E0
:1034E000FECF9FBB8EBBE09A99278DB30895DC0178
:1034F000CB0103C02D910E94821A41505040D0F759
:103500000895262FE199FECF9FBB8EBB2DBB0FB632
:10351000F894E29AE19A0FBE01960895F894FFCFCD
:103520000A010001011F1F4D61696E206D656E75F6
:103530000041565220495020636F6E666967005300
:10354000657276657220495020636F6E6669670008
:1035500053656E642074656D7020636F6E66696775
:103560000050696E672073657276657200536372EE
:1035700065656E2074696D656F7574006700710014
:103580007F009000A100AD003120203220203320A8
:10359000203420203520203600415652204950004A
:1035A0005365727665722049500053656E642074CD
:1035B000656D7020696E00414443302026205465BB
:0E35C0006D7000C800D900E000EA00F700FAC4
:00000001FF
