:100000000C9457030C9474030C9474030C947403B1
:100010000C9474030C9474030C9474030C94740384
:100020000C9474030C9474030C9474030C94740374
:100030000C9474030C9474030C9474030C94740364
:100040000C9474030C9474030C9474030C94740354
:100050000C947403536D61727420686F6D65005762
:10006000656C6C636F6D6520746F20736D61727465
:1000700020686F6D652070616765003C62723E00AC
:100080003C68722077696474683D223130302522E3
:100090002073697A653D2231223E3C62723E003C0B
:1000A000666F726D20616374696F6E3D222E2F3F03
:1000B00022206D6574686F643D22676574223E007E
:1000C0003C696E70757420747970653D2273756239
:1000D0006D6974222076616C75653D225772697472
:1000E00065204C4344223E3C2F666F726D3E003CBF
:1000F000696E707574206E616D653D226C6364324B
:100100002220747970653D227465787422207369A9
:100110007A653D22313622206D61786C656E677498
:10012000683D223136223E003C696E707574206E47
:10013000616D653D226C6364312220747970653D88
:100140002274657874222073697A653D22313622E3
:10015000206D61786C656E6774683D223136223E91
:100160003C62723E00266465673B433C62723E001F
:10017000202054656D7061726174757265203D2038
:100180000041434430203D20003C2F613E205D3C37
:1001900062723E3C62723E0031223E4F4E0030227F
:1001A0003E4F4646003C2F666F6E743E205B203CFF
:1001B0006120687265663D222E2F3F6C363D003C03
:1001C000666F6E7420636F6C6F723D7265643E4F34
:1001D0004646003C666F6E7420636F6C6F723D67BD
:1001E0007265656E3E4F4E003C2F613E205D2C20B7
:1001F0004C4544363A200031223E4F4E0030223EDC
:100200004F4646003C2F666F6E743E205B203C617B
:1002100020687265663D222E2F3F6C353D003C669E
:100220006F6E7420636F6C6F723D7265643E4F46F3
:1002300046003C666F6E7420636F6C6F723D677230
:1002400065656E3E4F4E003C2F613E205D2C204C7C
:100250004544353A200031223E4F4E0030223E4F79
:100260004646003C2F666F6E743E205B203C61204A
:10027000687265663D222E2F3F6C343D003C666FF0
:100280006E7420636F6C6F723D7265643E4F4646BC
:10029000003C666F6E7420636F6C6F723D677265B1
:1002A000656E3E4F4E003C2F613E205D2C204C453C
:1002B00044343A200031223E4F4E0030223E4F4619
:1002C00046003C2F666F6E743E205B203C612068C8
:1002D0007265663D222E2F3F6C333D003C666F6E8B
:1002E0007420636F6C6F723D7265643E4F464600CA
:1002F0003C666F6E7420636F6C6F723D67726565EC
:100300006E3E4F4E003C2F613E205D2C204C4544FC
:10031000333A200031223E4F4E0030223E4F4646B7
:10032000003C2F666F6E743E205B203C612068723B
:1003300065663D222E2F3F6C323D003C666F6E7429
:1003400020636F6C6F723D7265643E4F4646003CA1
:10035000666F6E7420636F6C6F723D677265656E59
:100360003E4F4E003C2F613E205D2C204C454432D8
:100370003A200031223E4F4E0030223E4F4646008A
:100380003C2F666F6E743E205B203C612068726576
:10039000663D222E2F3F6C313D003C666F6E74200F
:1003A000636F6C6F723D7265643E4F4646003C66FB
:1003B0006F6E7420636F6C6F723D677265656E3E21
:1003C0004F4E004C4544313A20003C2F7469746C08
:1003D000653E003C7469746C653E00485454502F6F
:1003E000312E3020323030204F4B0D0A436F6E7467
:1003F000656E742D547970653A20746578742F6831
:10040000746D6C0D0A0D0A00227D002C2273697038
:10041000223A220022002C22616970223A22002214
:10042000002C2274656D70223A220022002C224199
:10043000434430223A22003022003122002C226C28
:1004400036223A22003022003122002C226C352242
:100450003A22003022003122002C226C34223A222F
:10046000003022003122002C226C33223A2200314B
:1004700022003022002C226C32223A22003022004C
:100480003122007B226C31223A2200485454502FF2
:10049000312E3020323030204F4B0D0A436F6E74B6
:1004A000656E742D547970653A20746578742F6880
:1004B000746D6C0D0A0D0A007B2273746174757380
:1004C000223A224F4B227D00485454502F312E3077
:1004D00020323030204F4B0D0A436F6E74656E74BE
:1004E0002D547970653A20746578742F68746D6C3A
:1004F0000D0A0D0A00436F6E6E656374696F6E3A84
:10050000206B6565702D616C6976650D0A0D0A00BA
:100510004B6565702D416C6976653A203330300D3E
:100520000A004163636570743A20746578742F68BB
:10053000746D6C0D0A00557365722D4167656E749C
:100540003A20536D61727420686F6D650D0A004822
:100550006F73743A203139322E3136382E312E33C2
:10056000300D0A0020485454502F312E300D0A000F
:10057000474554202F6176726E65742F73617665DE
:100580002E7068703F7077643D7365637265742682
:1005900074656D703D00737461747573006170698A
:1005A000006D006800656E007463006C6364320067
:1005B0006C636431006C36006C35006C34006C3355
:1005C000006C32006C310073697000616970000466
:1005D0000404023C3C18456E61626C65004469731A
:1005E00061626C6500E500EF00F90003010E01187F
:1005F0000123012E01390144014F015B01660172A3
:10060000017E018A019501A101AD01B901C501D1A8
:1006100001DD01E901F40100020C02170223022EA0
:1006200002390244024F025A0265026F02790284C3
:10063000028E029702A102AA02B402BD02C602CE35
:1006400002D702DF02E702EF02F702FE0206030D05
:100650000314031B03210328032E0334033A03402E
:100660000345034B03500355035A035F03630368B9
:10067000036C037103750379037D0381038403888D
:10068000038B038F039203950398039B039E03A19F
:1006900003A303A603A803AB03AD03B003B203B4E3
:1006A00003B603B803BA03BC03BE03C0030011249E
:1006B0001FBECFE5D8E0DEBFCDBF11E0A0E6B0E0C1
:1006C000E6E8FBE202C005900D92AC30B107D9F725
:1006D00011E0ACE0B1E001C01D92A534B107E1F733
:1006E0000E94FD060C94C1150C940000C498962F2E
:1006F0009F71982B9FB9779BFECF1FB8779BFECF3A
:1007000067FF03C01FB8779BFECFC49A8FB10895CF
:10071000C4986F71682B6FB9779BFECF4FB9779BE9
:10072000FECFC49A08951F93CF93DF93182FC82F3D
:10073000D0E0C076D07080910C0190E0C817D90746
:1007400091F080EA6FE143E00E94880385E0D5954F
:10075000C7958A95E1F780E86FE14C2F0E948803E6
:10076000107610930C01DF91CF911F9108951F9384
:10077000182F0E94930380E0612F0E9476031F913F
:1007800008950F931F93182F062F0E94930380E460
:10079000612F402F0E9488031F910F9108950F939E
:1007A0001F93682F84ED0E94C10382ED61E00E94D7
:1007B000C1038AEE0E94B70380FDFBCF82ED61E0AA
:1007C0000E94C10388ED0E94B703082F10E089ED55
:1007D0000E94B703282F30E0202B312BC9011F9135
:1007E0000F9108950F931F93982F162F072F84EDC5
:1007F000692F0E94C10386ED612F0E94C10387ED1E
:10080000602F0E94C10310E503C0812F8A95F1F784
:100810008AEE0E94B70380FDF8CF1F910F910895D3
:10082000CF93DF93EC018B9A8A98929A939880E405
:100830009CE90197F1F7939A80ED97E020E931E088
:10084000F9013197F1F70197D9F787B3806B87BB2F
:10085000C49A88B38F7588BB80E58DB9709A8FEF85
:1008600060E04FEF0E94880384EF91E020E931E0DF
:10087000F9013197F1F70197D9F710920E01109213
:100880000D0188E060E00E94C10389E060E00E9401
:10089000C1038CE060E00E94C1038DE060E00E9433
:1008A000C1038AE063E20E94C1038BE06AE10E9417
:1008B000C10384E064E20E94C10385E06AE10E9412
:1008C000C10386E060E00E94C10387E060E20E940D
:1008D000C10380EC6DE00E94C10382EC62E30E94E0
:1008E000C10383EC60E40E94C10389EC6FE30E94C2
:1008F000C10386EC62E10E94C10387EC6CE00E94B8
:10090000C1038AEC6EEE0E94C1038BEC65E00E948D
:10091000C10384EE68810E94C10385EE69810E9453
:10092000C10382EE6A810E94C10383EE6B810E9443
:10093000C10380EE6C810E94C10381EE6D810E9433
:10094000C10380E160E071E00E94F20384E162E7AC
:1009500074E00E94F20388E360EB0E94C10388E226
:100960006FE30E94C10389E260E30E94C10380E358
:1009700069EF0E94C10381E367EF0E94C10384EC29
:1009800062E10E94C1038FE10E94930380E86BE162
:1009900040EC0E94880380E86FE144E00E948803F5
:1009A00088EC90E020E931E0F9013197F1F7019707
:1009B000D9F7DF91CF91089582E70E94B703089598
:1009C0000F931F93CF93DF938C01EB0182E064E2DE
:1009D0000E94C10383E06AE10E94C103CE018C5DE5
:1009E000682F86E00E94C1039E012C5D354E87E092
:1009F000632F0E94C1038AE760E040E00E94880301
:100A0000C4988AE78FB9779BFECF08C0F801808130
:100A10008FB9779BFECF21970F5F1F4F2097B1F7BC
:100A2000C49A80E86FE148E00E9488038CE10E944C
:100A3000B70381FF05C080EA6FE148E00E948803A8
:100A4000DF91CF911F910F910895CF92DF92EF9296
:100A5000FF920F931F93CF93DF936C017B0189E388
:100A60000E94B703882319F420E030E05AC080E0E8
:100A700060910D010E94C10381E060910E010E940E
:100A8000C1038AE360E00E94760380930D018AE34C
:100A900060E00E947603082F80930E018AE360E0F5
:100AA0000E947603C82F8AE360E00E947603D82F65
:100AB00024978AE360E00E947603182F8AE360E0BF
:100AC0000E947603B701615070406C177D0708F4EF
:100AD000EB0117FD03C0C0E0D0E014C09E01C49834
:100AE0008AE38FB9779BFECF09C01FB8779BFECFF3
:100AF0008FB1F60181936F012150304021153105EE
:100B0000A1F7C49A8CE060910D010E94C1038DE0B1
:100B1000602F0E94C10380E86EE140E40E948803D8
:100B20009E01C901DF91CF911F910F91FF90EF902E
:100B3000DF90CF90089528E088E190E00FB6F89418
:100B4000A89581BD0FBE21BDFFCF4F925F926F92DE
:100B50007F928F929F92AF92BF92CF92DF92EF924D
:100B60000F931F93DF93CF93CDB7DEB7CE5ED54003
:100B70000FB6F894DEBF0FBECDBF8091250184FF74
:100B8000D0C086FDCEC085FD31C00CE211E06E0103
:100B90000894C11CD11CC60164E371E0A8010E9445
:100BA000D90D882321F4809125018F7E2FC000D09C
:100BB000EDB7FEB712830183C60160E570E040EB3C
:100BC00054E022E001E0EE24E394CC24DD24AA24C6
:100BD000BB2434E3832E31E0932E0E945A0E809181
:100BE00025018062809325010F900F902E010894BB
:100BF000411C511CC2016EEE75E00E942505892B37
:100C000041F48091250187FF8CC08F74809325016A
:100C100088C0C2010E94F40E882309F482C088A90A
:100C2000823171F500D00CE2602E01E0702EEDB73C
:100C3000FEB772826182C20160E570E040EB54E071
:100C400020E100E0EE2411E0C12ED12CAA24BB2427
:100C5000B4E38B2EB1E09B2E0E945A0E0F900F90A2
:100C6000C2010E9433095C0100D0EDB7FEB7728269
:100C70006182C20160E570E040EB54E028E129C0E8
:100C8000883161F5C2010E94150E6C0100D0ACE202
:100C90006A2EA1E07A2EEDB7FEB772826182C201A0
:100CA00060E570E040EB54E020E100E0EE24AA248F
:100CB000BB24F4E38F2EF1E09F2E0E945A0EEDB775
:100CC000FEB772826182C20160E570E040EB54E0E1
:100CD00021E1CC24DD240E945A0E21C0813109F586
:100CE00000D08CE291E0EDB7FEB792838183C20120
:100CF00060E570E040EB54E020E100E0EE24E1E04C
:100D0000CE2ED12CAA24BB2434E3832E31E0932EA3
:100D10000E945A0E809125018F7C809325010F90AF
:100D20000F90C251DA4F0FB6F894DEBF0FBECDBFA1
:100D3000CF91DF911F910F91EF90DF90CF90BF90F7
:100D4000AF909F908F907F906F905F904F9008959D
:100D50000F931F93DF93CF93CDB7DEB7C85FD54016
:100D60000FB6F894DEBF0FBECDBF8091250185FD83
:100D700038C0CE010B966EEE75E00E942505892BDA
:100D800081F1DE011596FE01719686E001900D92CB
:100D90008150E1F78E01055F1F4FC80161E070E0EF
:100DA0000E94570D882339F0C801BE016B5F7F4F49
:100DB0000E94760D16C08DA19EA1AFA1B8A5898312
:100DC0009A83AB83BC83C8010E94F40E882349F048
:100DD000C801BE016B5F7F4FAE014F5F5F4F0E9446
:100DE000EB0AC850DA4F0FB6F894DEBF0FBECDBF86
:100DF000CF91DF911F910F910895CF93DF9381E4FD
:100E00008093260186E58093270192E5909328013F
:100E100080E5809329018FE480932A0190932B0130
:100E200080E391E060E070E044E050E00E949215C1
:100E30008CE291E064E070E044E050E00E949215A2
:100E40008AB38F708ABB8BB3806F8BBB80B78B7F6D
:100E500080BFBB9AC39A81E08EBD0E9440150E945C
:100E6000B0140E94751184B38C6F84BB83E085BB82
:100E700086E291E00E94100484E590E00E94211532
:100E8000C0E0D6E008B602FEFDCF88B7846088BF18
:100E9000DDBDCCBD0E94A4130E9445150E94A8068A
:100EA0000E94A5050E94F2120E942214EBCFDC01E1
:100EB00080E031E020E05AE09D91492F40534A30D4
:100EC00040F4239F202D1124240F359F302D112411
:100ED0000DC09E3221F0992311F080E00895FB01AE
:100EE000E80FF11D20838F5F31E020E0843021F78F
:100EF0000895982F80538A3068F08153863010F41B
:100F0000865F0895892F8154863010F080E008951F
:100F1000892F87530895CF92DF92FF920F931F93EB
:100F2000CF93DF93EC016C011CC09B3211F490E273
:100F300014C0953291F48E010F5F1F4FE801219686
:100F4000F80180810E947907F82EF80181810E94C2
:100F500079079F2D9295907F982BF60191936F01C1
:100F600021969881992309F7F6011082DF91CF919C
:100F70001F910F91FF90DF90CF9008950F931F93D3
:100F80008C0168EC74E040E050E00E94350EAC014A
:100F9000C80168EB74E00E94350E1F910F9108950F
:100FA000CF92DF92EF92FF920F931F93DF93CF9335
:100FB000CDB7DEB7C054D0400FB6F894DEBF0FBE39
:100FC000CDBF6C016BED73E040E050E00E94350E48
:100FD000AC01C60163ED73E00E94350EAC01C601A1
:100FE0006FE570E00E94350EAC01C6016AEC73E05B
:100FF0000E94350EAC01C60163EC73E00E94350E11
:10100000AC01AF9B04C0C6016EEA73E003C0C60129
:101010006AE973E00E94350EAC01C60160E873E036
:101020000E94350EAC01AF9B04C0C60169E773E0B6
:1010300003C0C60163E773E00E94350EAC01C60130
:1010400064E673E00E94350EAC01AE9B04C0C6019D
:101050006FE473E003C0C6016BE373E00E94350EDA
:10106000AC01C60161E273E00E94350EAC01AE9B9B
:1010700004C0C6016AE173E003C0C60164E173E025
:101080000E94350EAC01C60165E073E00E94350E8A
:10109000AC01AD9B04C0C60160EF72E003C0C601A5
:1010A0006CED72E00E94350EAC01C60162EC72E09C
:1010B0000E94350EAC01AD9B04C0C6016BEB72E023
:1010C00003C0C60165EB72E00E94350EAC01C6019B
:1010D00066EA72E00E94350EAC01AC9B04C0C6010A
:1010E00061E972E003C0C6016DE772E00E94350E4F
:1010F000AC01C60163E672E00E94350EAC01AC9B08
:1011000004C0C6016CE572E003C0C60166E572E08A
:101110000E94350EAC01C60167E472E00E94350EF4
:10112000AC01AB9B04C0C60162E372E003C0C60120
:101130006EE172E00E94350EAC01C60164E072E01F
:101140000E94350EAC01AB9B04C0C6016DEF71E08F
:1011500003C0C60167EF71E00E94350EAC01C60105
:1011600068EE71E00E94350EAC01AA9B04C0C60176
:1011700063ED71E003C0C6016FEB71E00E94350EB4
:10118000AC01C60165EA71E00E94350EAC01AA9B74
:1011900004C0C6016EE971E003C0C60168E971E0F0
:1011A0000E94350EAC01C60169E871E00E94350E5F
:1011B000AC01C60161E871E00E94350E7C0180E05F
:1011C0000E942F15AC018E010F5F1F4FC80164E014
:1011D0000E94BE0F1D82C601B801A7010E94480EE1
:1011E000AC01C60160E771E00E94350E7C010E94EF
:1011F0004515482FC80162E050E00E94BE0F1B82D7
:10120000C601B801A7010E94480EAC01C60165E6FF
:1012100071E00E94350EAC01C6016FE970E00E94DA
:10122000350EAC01C60168E271E00E94350EAC01DA
:10123000C6016FEE70E00E94350EAC01C60160EC95
:1012400070E00E94350EC05CDF4F0FB6F894DEBF31
:101250000FBECDBFCF91DF911F910F91FF90EF9007
:10126000DF90CF900895EF92FF920F931F93DF933B
:10127000CF93CDB7DEB7C054D0400FB6F894DEBFE1
:101280000FBECDBF8C010E944515482F7E010894EA
:10129000E11CF11CC70162E050E00E94BE0F1B82FE
:1012A000C80160E775E040E050E00E94350EAC01F7
:1012B000C801B7010E94480EAC01C80164E675E0A0
:1012C0000E94350EAC01C8016FE475E00E94350E36
:1012D000AC01C80166E375E00E94350EAC01C8019F
:1012E00062E275E00E94350EAC01C80160E175E074
:1012F0000E94350EAC01C80165EF74E00E94350E06
:10130000C05CDF4F0FB6F894DEBF0FBECDBFCF91EC
:10131000DF911F910F91FF90EF900895CF92DF9290
:10132000EF92FF920F931F93DF93CF93CDB7DEB76A
:10133000C054D0400FB6F894DEBF0FBECDBF6C01D5
:101340006BE874E040E050E00E94350EAC01C6014D
:1013500063E874E00E94350EAC01AF9B04C0C60187
:1013600060E874E003C0C6016DE774E00E94350ECA
:10137000AC01C60165E774E00E94350EAC01AE9B7E
:1013800004C0C60162E774E003C0C6016FE674E002
:101390000E94350EAC01C60167E674E00E94350E6E
:1013A000AC01AD9B04C0C60164E674E003C0C60195
:1013B00061E674E00E94350EAC01C60169E574E097
:1013C0000E94350EAC01AC9B04C0C60166E574E01A
:1013D00003C0C60163E574E00E94350EAC01C6018E
:1013E0006BE474E00E94350EAC01AB9B04C0C601F7
:1013F00068E474E003C0C60165E474E00E94350E41
:10140000AC01C6016DE374E00E94350EAC01AA9BED
:1014100004C0C6016AE374E003C0C60167E374E078
:101420000E94350EAC01C6016DE274E00E94350EDB
:101430007C0180E00E942F15AC018E010F5F1F4FD1
:10144000C80164E00E94BE0F1D82C601B801A70159
:101450000E94480EAC01C6016BE274E00E94350E9A
:10146000AC01C60161E274E00E94350E7C010E946D
:101470004515482FC80162E050E00E94BE0F1B8254
:10148000C601B801A7010E94480EAC01C6016FE178
:1014900074E00E94350EAC01C60166E174E00E9462
:1014A000350E7C01C80160E371E040E00E94FC0F52
:1014B000C601B801A7010E94480EAC01C60164E153
:1014C00074E00E94350EAC01C6016BE074E00E942E
:1014D000350E7C01C8016CE271E040E00E94FC0F17
:1014E000C601B801A7010E94480EAC01C60168E020
:1014F00074E00E94350EC05CDF4F0FB6F894DEBF7B
:101500000FBECDBFCF91DF911F910F91FF90EF9054
:10151000DF90CF900895CF92DF92EF92FF920F93DA
:101520001F93CF93DF93EC018B016A0179010E9435
:101530002E0E282F30E02E5D3F4FFE01E20FF31FED
:1015400005C081918F3329F02F5F3F4F201731075E
:10155000C0F320173107A9F1DE01A20FB31FF60176
:1015600080E015C044919C919D3339F4882329F083
:10157000442319F42F5F3F4F0FC0941719F0F60161
:1015800080E002C031968F5F2F5F3F4F119620178A
:10159000310740F38823B1F0DE01A20FB31F80E0D2
:1015A0009C91963219F01196903229F4E80EF11CB4
:1015B000F701108207C0F701E80FF11D90838F5FDC
:1015C000EFCF80E0DF91CF911F910F91FF90EF90CF
:1015D000DF90CF9008952F923F924F925F926F923B
:1015E0007F928F929F92AF92BF92CF92DF92EF92B3
:1015F0000F931F93DF93CF93CDB7DEB7C754D0407F
:101600000FB6F894DEBF0FBECDBF3C0126967FAF6C
:101610006EAF269728965FAF4EAF2897FC0122A1A8
:1016200063A18789863009F0E6C184A1882309F087
:10163000E2C185A1803509F0DEC1922F80E0262E1F
:101640003324282A392A87A581FF1BC000D0EDB793
:10165000FEB752834183C301B10140E550E022E16E
:1016600001E0EE24F1E0CF2ED12CAA24BB24269653
:101670008EAC9FAC26970E945A0E80912501806403
:10168000B6C184FFB8C1C3010E94150E2C0100979A
:1016900001F5F30187A580FFAEC100D028968EAD7D
:1016A0009FAD2897EDB7FEB792838183C301B10147
:1016B00040E550E020E100E0EE24E1E0CE2ED12C28
:1016C000AA24BB2426968EAC9FAC26970E945A0E65
:1016D00090C18E010C5F1F4FC301B2014BEC55E06E
:1016E00098010E948B0A8823B9F0C80160E371E079
:1016F0000E945707843041F480E391E060E070E09D
:1017000044E050E00E94AA1580E391E060E070E0C0
:1017100044E050E00E9492158E010C5F1F4FC30100
:10172000B20147EC55E098010E948B0A8823B9F07A
:10173000C8016CE271E00E945707843041F48CE2EA
:1017400091E064E070E044E050E00E94AA158CE271
:1017500091E064E070E044E050E00E949215C30123
:10176000B20144EC55E09E012C5F3F4F0E948B0A72
:10177000882331F08C81803311F4AF9801C0AF9A87
:10178000C301B20141EC55E09E012C5F3F4F0E9426
:101790008B0A882331F08C81803311F4AE9801C01C
:1017A000AE9AC301B2014EEB55E09E012C5F3F4F54
:1017B0000E948B0A882331F08C81803311F4AD981C
:1017C00001C0AD9AC301B2014BEB55E09E012C5F05
:1017D0003F4F0E948B0A882331F08C81803311F4B3
:1017E000AC9801C0AC9AC301B20148EB55E09E0130
:1017F0002C5F3F4F0E948B0A882331F08C8180330D
:1018000011F4AB9801C0AB9AC301B20145EB55E0AE
:101810009E012C5F3F4F0E948B0A882331F08C8100
:10182000803311F4AA9801C0AA9A8E010C5F1F4F51
:10183000C301B20140EB55E098010E948B0A882356
:1018400079F0C8010E948B078CE00E94F814C8014F
:101850000E94141580912501846080932501C39A0C
:101860008E010C5F1F4FC301B2014BEA55E0980196
:101870000E948B0A882379F0C8010E948B078AE0B6
:101880000E94F814C8010E941415809125018460FB
:1018900080932501C39A8E010C5F1F4FC301B201D3
:1018A00048EA55E098010E948B0A882309F447C052
:1018B000C301B20145EA55E098010E948B0A8823D2
:1018C00019F081E0898301C01982C301B20143EAA2
:1018D00055E09E012C5F3F4F0E948B0A882349F000
:1018E0008C812AE0829FC00111242D81280F205174
:1018F0002A83C301B20141EA55E09E012C5F3F4FAC
:101900000E948B0A882349F08C812AE0829FC001C3
:1019100011242D81280F20512B83CE01019668E0E0
:1019200070E043E050E00E94AA158AE391E068E08D
:1019300070E043E050E00E94921510923D018E014C
:101940000C5F1F4FC301B2014DE955E098010E94A1
:101950008B0A882339F08C818F36A9F4C3010E9449
:101960008E0910C0C301B20146E955E098010E94FA
:101970008B0A882321F0C3010E94BE0703C0C30164
:101980000E94D0072C0100D028968EAD9FAD2897DD
:10199000EDB7FEB792838183C301B10140E550E00A
:1019A00020E100E0EE2431E0C32ED12CAA24BB2498
:1019B00026968EAC9FAC26970E945A0E28968EAD26
:1019C0009FAD2897EDB7FEB792838183C301B10124
:1019D00040E550E029E1CC24DD24520126968EAC6E
:1019E0009FAC26970E945A0E809125018F7B809391
:1019F00025010F900F90C95BDF4F0FB6F894DEBF43
:101A00000FBECDBFCF91DF911F910F91EF90DF906F
:101A1000CF90BF90AF909F908F907F906F905F908E
:101A20004F903F902F900895CF93DF93DC011E9647
:101A30001C921E9781E01F968C931F9788E050960A
:101A40008C93509751961C92519786E052968C93A6
:101A5000529784E053968C935397ED0120E030E049
:101A6000FB01E20FF31F808188A3F901EA5DFE4FBD
:101A700080818E8B2F5F3F4F21962630310581F775
:101A80005C9620E030E0FA01E20FF31F80811A96A5
:101A90008C931A97F901E05DFE4F80818D932F5F43
:101AA0003F4F2430310579F7DF91CF910895FC0144
:101AB00084858830C9F485858630B1F48489871798
:101AC00099F48589861781F4DF019696E0E3F1E0C9
:101AD0009C918081981741F41196319681E0E4330E
:101AE000F807B1F781E0089580E00895EF92FF9242
:101AF0000F931F938C017B0166E078E0A7010E94A1
:101B0000580FF801148A82E0858BA801445E5F4F6C
:101B1000C801B7010E94140DC8016AE270E00E947A
:101B2000E0041F910F91FF90EF900895CF92DF9204
:101B3000EF92FF920F931F93DF93CF9300D000D0CB
:101B400000D0CDB7DEB78C016B018FEF89838A831C
:101B50008B838C838D838E83C80166E078E07E0161
:101B60000894E11CF11CA7010E94580F19821A82E7
:101B70001B821C821D821E82F801148A81E0858BE3
:101B8000C801B701A6010E94140DC8016AE270E005
:101B90000E94E00426960FB6F894DEBF0FBECDBFBC
:101BA000CF91DF911F910F91FF90EF90DF90CF9039
:101BB0000895DF92EF92FF920F931F93CF93DF93DD
:101BC000EC01062FD72EBA010E94960D10E080E49A
:101BD000E82E8CE9F82EC7010197F1F7CE016EEEE1
:101BE00075E00E942505892BA1F0CE0162E070E02E
:101BF0000E94570D882369F0802F9D2D9C01D901EB
:101C0000FE01369686E001900D928150E1F781E069
:101C100004C01F5F1A30F9F680E0DF91CF911F9169
:101C20000F91FF90EF90DF900895FC01908980E084
:101C3000218930E0282B392B2451304086A582950C
:101C40008F7090E0880F991F880F991F281B390B00
:101C500037FF02C020E030E0C9010895FC0186A5ED
:101C600082958F70880F880F08954A5C5F4FDC0162
:101C7000A40FB51F4653504003C08D934F5F5F4F75
:101C8000FB016F5F7F4F84918823B9F7CA010895E4
:101C9000FB014A5C5F4FDC01A40FB51F4653504067
:101CA00004C08D9331964F5F5F4F80818823C9F7C1
:101CB000CA0108952F923F924F925F926F927F9246
:101CC0008F929F92AF92BF92CF92DF92EF92FF924C
:101CD0000F931F93DF93CF930F92CDB7DEB73C01E5
:101CE000262E472E4983352E522EF02E8501A40133
:101CF00060E078E00E94580FC114D10489F0F3012C
:101D0000B99634E08081A601480F511DCA01248193
:101D100044832083C92EDD2431503197332391F73A
:101D2000FF20B9F0F30116A217A28091600080A7EE
:101D300011A68E5F8093600082E086AB84E087AB63
:101D400085E080AF80E881AF80E686A70C5F1F4FFB
:101D500003C080E5F30186A7B801685D7F4FC3012A
:101D600046E02E893F890E940E0FEE2029F0F301F4
:101D700012A613A614A615A6F30157A644A225A2DF
:101D800032A2498143A385E080AB8AEB81AB14AAE0
:101D900015AA12AA13AA065E1F4F980140E050E050
:101DA000C3014A960E5F1F4FB8010E94750FF301E1
:101DB00092AB83AB065E1F4FC301B8010E94E004E3
:101DC0000F90CF91DF911F910F91FF90EF90DF90D7
:101DD000CF90BF90AF909F908F907F906F905F90CB
:101DE0004F903F902F900895FC0184858830A1F496
:101DF0008585882389F4DF01E0E3F1E05E969C911C
:101E00005E978081981741F41196319681E0E43312
:101E1000F807A1F781E0089580E008950F931F93DC
:101E2000CF93DF93EC018C01025F1F4F85E48E8717
:101E30001F86788B698B809162008A8B809161000C
:101E40008B8B80916100909162000196909362006B
:101E5000809361001C8A1D8A80E88E8B4F8BDE0187
:101E600040E050E0F901E40FF51F80815E968C930D
:101E70005E97FA01E05DFE4F80815A968C935A97E7
:101E80004F5F5F4F11964430510561F7188E198EE0
:101E9000C80164E170E020E030E040E050E00E94E2
:101EA000750F988F898FDF91CF911F910F910895B2
:101EB000CF93DF93EC01DC0120E030E0FA01E20F88
:101EC000F31F80818C93F901EA5DFE4F80811696A5
:101ED0008C9316972F5F3F4F11962630310571F77F
:101EE0007C876D87DF91CF910895EF92FF920F93DA
:101EF0001F93CF93DF937C018B01EC010FC0F8811E
:101F0000E0E0898190E08E2B9F2BA0E0B0E0280FCD
:101F1000391F4A1F5B1F2296625070406230710564
:101F200070F7F801EE7FEE0DFF1D00FF0BC09081F2
:101F300080E0A0E0B0E002C040705070280F391F70
:101F40004A1F5B1FCA01AA27BB270097A105B1053D
:101F500099F720953095C901DF91CF911F910F918D
:101F6000FF90EF900895DC0101C08D93FB016F5F3E
:101F70007F4F84918823C9F7CD0108951F93FC01F9
:101F8000162F9A01653038F0CA0160E177E20E94AD
:101F90007E15605D6193143058F0C90160E177E20D
:101FA0000E947E1568EE73E00E947E15605D61936D
:101FB000133058F0C90168EE73E00E947E1564E6A4
:101FC00070E00E947E15605D6193123058F0C90187
:101FD00064E670E00E947E156AE070E00E947E1563
:101FE000605D6193C9016AE070E00E947E15805DCA
:101FF0008193CF011F910895CF92DF92EF92FF92CC
:102000000F931F93CF93DF93DC017B0180E090E07F
:10201000042F10E03EE2C32E2EE7D22EF701E80F88
:10202000F91F4081443610F063E005C04A3010F4D7
:1020300061E001C062E0EC012196C017D10711F404
:10204000DD9202C08111CD92CD0150E00E94BE0F01
:10205000DC01C430D10511F0CE01E0CF1C92DF913C
:10206000CF911F910F91FF90EF90DF90CF90089547
:10207000882331F4AF9B02C0AF980895AF9A0895BA
:10208000813031F4AE9B02C0AE980895AE9A0895A7
:10209000823031F4AD9B02C0AD980895AD9A089599
:1020A000833031F4AC9B02C0AC980895AC9A08958B
:1020B000843031F4AB9B02C0AB980895AB9A08957D
:1020C000853029F4AA9B02C0AA980895AA9A089577
:1020D000DC0120E046E430E350E27EE7261739F4E5
:1020E000CD010196222351F47C93DC0116C06623B6
:1020F00051F4213041F4FD01519317C05C931196C6
:102100007C93FC0106C0222341F0FD0151931196FE
:102110005C933196213071F408C0CD010196AF9BDC
:1021200002C03C9323C04C9321C0CF010196AE9BCB
:102130001CC019C0223029F4CF010196AD9B15C0F7
:1021400012C0233029F4CF010196AC9B0EC00BC006
:10215000243029F4CF010196AB9B07C004C0CF0106
:102160000196AA9B02C0308301C04083DC012F5F2F
:10217000263009F0B3CF1C920895DC0180916300F2
:10218000843610F063E005C08A3010F461E001C0CD
:1021900062E0FD018EE78193409163004423A9F43E
:1021A0008EE411968C93DF01119695E69183FD01E3
:1021B000319686E711968C93DF011196918382E721
:1021C00011968C931197FD011FC0CF0150E00E9422
:1021D000BE0FDC01FC0180E2819383E711968C93B2
:1021E000DF01119685E68183FD01319683E6119624
:1021F0008C93DF0111968FE68183FD0131968EE687
:1022000011968C9384E68183329610820895CF9242
:10221000DF92EF92FF920F931F93CF93DF93DC0136
:10222000FB014423F1F48081882389F0EB0121969E
:1022300010E00AE301C00D934991CD0162E050E046
:102240000E94BE0FDC011F5F1330A9F744C08DED63
:1022500095E001C02D93FC01019624912223D1F732
:102260003AC04130C9F48EE78D938081882351F0C4
:1022700086ED95E001C02D93FC0101962491222367
:10228000D1F729C08DED95E001C02D93FC01019699
:1022900024912223D1F71FC08B01C2E0D0E0E42EAD
:1022A000FF245AE3C52E4EE7D42ECE15DF0511F4D8
:1022B000DD9203C0C23009F0CD92F8014181CD0119
:1022C00062E050E00E94BE0FDC0121960F5F1F4FBD
:1022D000C530D10551F71C92DF91CF911F910F911D
:1022E000FF90EF90DF90CF900895109241018AE324
:1022F00091E068E070E043E050E00E949215109297
:102300003D01109225011092240110923F0110927C
:10231000400110924401109242011092430181E069
:1023200080933E01089580913F01882391F480912C
:102330003E01813029F480910F010E9438100895E8
:10234000815080933E018091250182608093250118
:102350000895813061F48091400181508093400163
:10236000882309F04CC085E08093400108958230B5
:1023700069F4E0914301F0E0E05DFE4F808181501F
:10238000808380E391E060E070E025C0833069F4F1
:10239000E0914301F0E0E45DFE4F80818150808355
:1023A0008CE291E064E070E016C08430C9F4809162
:1023B000430190E0FC01EE52FA4F2491FC01E65CEF
:1023C000FE4F8081815080838F3F09F420838AE310
:1023D00091E068E070E044E050E00E94AA150895A2
:1023E000863069F480916300882311F480EF01C086
:1023F000815080936300809163008093640008950E
:1024000090913F019923E9F490913E01913051F46C
:1024100080910F018F5F80930F01863009F066C0B5
:1024200010920F01892F8F5F80933E01863019F43F
:1024300081E080933E018091250182608093250197
:102440000895913059F4809140018F5F809340014D
:10245000863009F04BC0909340010895923069F4A2
:10246000E0914301F0E0E05DFE4F80818F5F80836B
:1024700080E391E060E070E025C0933069F4E09182
:102480004301F0E0E45DFE4F80818F5F80838CE24A
:1024900091E064E070E016C09430C9F4809143018B
:1024A00090E0FC01EE52FA4FE491DC01A65CBE4FD5
:1024B0008C918F5F8C938E1709F41C928AE391E0C4
:1024C00068E070E044E050E00E94AA15089596305C
:1024D00069F4809163008F5F80936300813F10F007
:1024E00010926300809163008093640008950F93BD
:1024F0001F93DF93CF93CDB7DEB7C054D0400FB654
:10250000F894DEBF0FBECDBF80913F01882309F450
:102510005DC08CE00E94F814E0913F01F0E0EE0F06
:10252000FF1FE854FF4F808191810E9414158AE0BB
:102530000E94F81480913F01813051F4E0914001F4
:10254000F0E0EE0FFF1FE654FF4F808191813CC009
:10255000823051F4409143014F5F8E010F5F1F4F56
:10256000C80160E371E023C0833051F4409143011E
:102570004F5F8E010F5F1F4FC8016CE271E017C003
:10258000843061F4409143014F5F8E010F5F1F4F14
:10259000C8016AE371E00E94071115C0853051F44B
:1025A0008E010F5F1F4FC8016CE271E041E00E9495
:1025B000FC0F09C0863051F48E010F5F1F4FC80118
:1025C00061E00E94BD10C8010E941415C05CDF4F7D
:1025D0000FB6F894DEBF0FBECDBFCF91DF911F9134
:1025E0000F9108951F9319B3107F90916300103FCE
:1025F00069F5809125018E7F8093250180912401CA
:102600008E7F809324011092110110921001992362
:1026100011F4C39A97C090916400992309F492C071
:1026200080910B01815080930B018B3F08F48AC08D
:102630008AEF80930B01892F815080936400882357
:1026400009F080C010926400C3987CC0909364002D
:10265000C39A809111018F5F80931101883C39F4F6
:102660001092110180912401816080932401809156
:10267000240180FF14C0809110018F5F80931001AE
:102680008E3169F410921001103B19F40E9400126F
:1026900004C0103711F40E9493110E9477128091A8
:1026A000250180FD4FC0103E31F5E0913F01EE2342
:1026B00031F41092430181E080933F012AC0E13060
:1026C00061F4E093440180914001809342018F5F67
:1026D00080933F01E09340012DC0F0E0E353FA4FB7
:1026E000E491809143018F5F809343018E1711F530
:1026F000109243011FC0103DA1F41092430180913C
:102700003F01823048F08091440180933F018091E5
:102710004201809340010EC010923F01109240018F
:1027200009C0103B19F40E94001204C0103711F4C4
:102730000E9493110E9477128091250181608B7F06
:10274000809325011F910895809141018F5F8093AF
:1027500041018A3F09F04CC010924101909125013E
:10276000892F82608093250185FF0CC08091120122
:102770008F5F80931201853029F4109212019268C4
:102780009093250180913A01882391F180913F0136
:10279000843071F180913D01815080933D018C33F3
:1027A00038F184E180933D0180913C018150809318
:1027B0003C018C33E8F08BE380933C0180913B013A
:1027C000815080933B01883198F089E090E00E942D
:1027D000A21580933B018AE090E00E94A2158093AD
:1027E0003C0110923D01809125018061809325017B
:1027F0000895DF92EF92FF920F931F937C0180E088
:102800000E942F158C010E944515D82EC70164E047
:10281000A8010E94BE0FFC018CE28193CF0162E00F
:102820004D2D50E00E94BE0FDC01FC018FED819325
:1028300083E411968C9311821F910F91FF90EF907A
:10284000DF900895DF93CF93CDB7DEB7C054D0406B
:102850000FB6F894DEBF0FBECDBF9091250191FF5A
:102860004DC0892F8D7F8093250192FD47C08091B7
:102870003F01882309F042C08CE00E94F814E091E7
:102880003E01F0E0EE0FFF1FE150FF4F808191818C
:102890000E9414158AE00E94F81480913E01813054
:1028A00031F4CE01019660910F010E946810809171
:1028B0003E01823029F4CE01019660E371E006C04A
:1028C000833041F4CE0101966CE271E040E00E9459
:1028D000FC0F10C0843041F4CE0101966AE371E030
:1028E00040E00E94071106C0853021F4CE01019618
:1028F0000E94F913CE0101960E941415C05CDF4FAF
:102900000FB6F894DEBF0FBECDBFCF91DF91089513
:1029100092B39F7092BB92B3807F892B82BB85E07C
:102920008A95F1F7C29A8AE08A95F1F7C2980895DC
:102930001F93162FC098882311F0C09A01C0C09829
:1029400088EC90E00197F1F7C298812F807F0E9478
:102950008814812F8295807F0E9488141F9108958A
:102960000F931F9381B3806F81BB87B3876087BB51
:1029700082B38F7082BBC09880E69AEE0197F1F720
:1029800080E30E94881400E21EE4C8010197F1F779
:1029900080E30E948814C8010197F1F780E30E9448
:1029A0008814C8010197F1F780E20E94881480E042
:1029B00068E20E94981480E06CE00E94981480E025
:1029C00061E00E94981480E066E00E9498141F91D4
:1029D0000F910895982F613011F080E401C080E0DC
:1029E0009150980F906880E0692F0E949814089584
:1029F000682F8C3049F480E061E00E94981480E4F4
:102A00009FE10197F1F708958A3029F481E062E0AF
:102A10000E94EA140895883019F480E060E101C052
:102A200081E00E9498140895CF93DF93EC0103C0D6
:102A300021960E94F81488818823D1F7DF91CF91E5
:102A40000895CF93DF93EC0102C00E94F814FE01B9
:102A5000219684918823C9F7DF91CF91089597B18A
:102A60008F71907E892B87B9369A3699FECF24B123
:102A700045B1942F80E030E0282B392BC90108950F
:102A800087E886B980EC87B908951F9310911301E8
:102A900081E00E942F15E12FF0E0EE0FFF1FEC5EAA
:102AA000FE4F91838083E4E1F1E020E030E081910A
:102AB0009191280F391F81E0E432F807C1F7812F87
:102AC0008F5F80931301883011F410921301B901C4
:102AD00083E0769567958A95E1F725EE35E040E04D
:102AE000F901859194918617970728F44F5F2E5F1F
:102AF0003F4F4436A9F7842F1F910895AA1BBB1B93
:102B000051E107C0AA1FBB1FA617B70710F0A61BED
:102B1000B70B881F991F5A95A9F780959095BC010E
:102B2000CD010895DC01CB01FC01E199FECF06C087
:102B3000FFBBEEBBE09A31960DB20D924150504072
:102B4000B8F70895E199FECF9FBB8EBBE09A992715
:102B50008DB30895DC01CB0103C02D910E94B51502
:102B600041505040D0F70895262FE199FECF9FBBEA
:102B70008EBB2DBB0FB6F894E29AE19A0FBE019678
:062B80000895F894FFCF58
:102B86000A01001F1F4D61696E206D656E7500415B
:102B9600565220495020636F6E666967005365720E
:102BA60076657220495020636F6E666967005365CB
:102BB6006E642074656D7020636F6E666967005081
:102BC600696E672073657276657200536372656518
:102BD6006E2074696D656F75740065006F007D0009
:102BE6008E009F00AB00312020322020332020347D
:102BF600202035202036004156522049500053658A
:102C0600727665722049500053656E642074656D56
:102C16007020696E004144433020262054656D7053
:0C2C260000C600D700DE00E800F500FA50
:00000001FF
